:100000000C944D010C946A010C946A010C946A01E1
:100010000C946A010C94A7010C946A010C946A0177
:100020000C946A010C946A010C946A010C946A01A4
:100030000C946A010C946A010C946A010C946A0194
:100040000C94FE0D0C946A010C946A010C946A01E4
:100050000C942B0D0C94E90C0C946A010C946A011D
:100060000C946A010C946A010C946A010C946A0164
:100070000C946A010C946A010C946A017C5F002361
:10008000002300230023005F7C5F005F7C002300CF
:100090002300230023005F7C5F004C69766573209A
:1000A00052656D61696E696E672025640A0053634D
:1000B0006F72652025640A00507265737320612099
:1000C000627574746F6E20746F2073746172742023
:1000D000616761696E0047414D45204F56455200AA
:1000E0002300230023232323232323232323232326
:1000F00023232323002323232323232323232323F3
:1001000023232323230050524553532050204F5282
:10011000207020544F20524553554D4500504155B5
:100120005345440023002300232323232323232395
:1001300023232323232323230023232323232323B2
:10014000232323232323232323005F7C5F004C6985
:100150007665732052656D61696E696E67202564EE
:100160000A0053636F72652025640A0053636F723F
:100170006520300043535345323031302F37323011
:10018000312070726F6A656374206279204E696BEA
:1001900068696C204E61696B0041737465726F69A8
:1001A0006473000E020B0207020302FF01FB01F75A
:1001B00001F301EF01EB017D027902750271026D1D
:1001C000026902650261025E025A02560252024D43
:1001D000024902450241023C02380234022F022B3E
:1001E00002260221021C02170212026492927D6C06
:1001F00092926D809EA0C17C92924DE4A2A29D1825
:100200002848FF4492926D468A926342FE037C9294
:10021000A27D868A92A2C3E0100E10E1C6281028A3
:10022000C7FC021C02FDF8040204F9FC0202FD8076
:1002300080FE80816492924DFE9098677C828A7CD9
:1002400003FE9090617C82827DFE2010FFFE403094
:1002500040FFFE020203FE1028C7040202FD82FED8
:1002600083FE1010FF7C82925DFE909081FE929240
:1002700083FE82827D7C828245FE92926D7E90908A
:100280007F1B5B3F32356C001B5B4B001B5B324AB4
:10029000001B5B25643B2564480011241FBECFEF83
:1002A000D8E0DEBFCDBF11E0A0E0B1E0EAE9F6E2C0
:1002B00002C005900D92AA32B107D9F722E0AAE256
:1002C000B1E001C01D92A438B207E1F70E942D0BE6
:1002D0000C944B130C940000E8E6F0E080818260FF
:1002E0008083D99AECE6F0E080818F608083109261
:1002F0002A01089580912A0118163CF580912B015E
:100300006FB7F89490912A019230B4F021E030E078
:1003100091E0F901E55DFE4F4081F901E65DFE4F98
:1003200040839F5F292F30E040912A01042E000C6A
:10033000550B241735076CF390912A019150909337
:100340002A0166231CF4789408958FEF08951F9274
:100350000F920FB60F9211242F933F934F935F93F9
:100360006F937F938F939F93EF93FF9343B14F705E
:1003700080E090E0642F70E020912A01243004F5A1
:100380009B01082E02C0359527950A94E2F720FFBD
:1003900017C020912F0130E0082E02C03595279517
:1003A0000A94E2F720FD0CC0E0912A0121E02E0F13
:1003B00020932A010E2E000CFF0BE55DFE4F80837B
:1003C000019684309105C1F640932F01FF91EF9182
:1003D0009F918F917F916F915F914F913F912F915D
:1003E0000F900FBE0F901F90189520E1829FC001C3
:1003F00011246F70862B40914901042E000C550B7F
:1004000014161506C4F490914F01891749F090E035
:100410000AC0F901E15BFE4F2081821304C001C0D4
:1004200090E0892F08959F5F292F30E0241735072A
:1004300084F38FEF08958FEF08951F93CF93DF9389
:10044000182F909163018FEF890F482F082E000C11
:10045000550B292F092E000C330B2F5F3F4F24170C
:100460003507E4F0D8E0D91BC82F883028F4412F95
:100470006D2F80E00E940B0881E08C0F909163014A
:10048000D150482F082E000C550B292F092E000C97
:10049000330B2F5F3F4F2417350734F767E0691B95
:1004A000412F81E00E940B08DF91CF911F910895A9
:1004B00090E020914901022E000C330B8217930724
:1004C0006CF4462FFC01E15BFE4F8081982F9295E2
:1004D0009F7067E0691B8F700E940B080895CF938F
:1004E00088230CF1909149018917ECF4C82F60E042
:1004F0000E9458028C2FCC0F990B40914901242F58
:10050000042E000C330B215031098217930744F459
:10051000F901E15BFE4F2081FC01E15BFE4F20838E
:10052000415040934901CF91089590E020914E01B0
:10053000022E000C330B821793076CF4462FFC013C
:10054000E65BFE4F8081982F92959F7067E0691B54
:100550008F700E940B080895CF93882324F1909107
:100560004E01891704F5C82F60E00E94950281E0D2
:100570008C0F282F30E060914E01462F062E000C84
:10058000550B2417350764F4F901E65BFE4F9081A3
:10059000319790838F5F282F30E024173507A4F31D
:1005A000615060934E01CF9108954F925F926F9288
:1005B0007F92AF92BF92CF92DF92EF92FF920F9312
:1005C0001F93CF93DF938EE188B983E0809363011B
:1005D00010924E01109249010FE411E00F2EF3E644
:1005E000AF2EF1E0BF2EF02D0F2EFDE04F2E512C3F
:1005F000612C712CF02D0E94B50F6B017C0127E05E
:10060000C222DD24EE2420E8F222FF2084F481E0DF
:10061000C81AD108E108F108E8EFCE2ADD24DA94FF
:10062000ED2CFE2CFFEFCF1ADF0AEF0AFF0A0E9423
:10063000B50FA30192010E941A0FC3E0C60F6C2FE1
:100640008C2D0E94F5018F3FB1F620E1C29EB001D2
:100650001124CF70C62BF801C1938F0180914901FD
:100660008F5F80934901EA15FB0529F60E944E0829
:100670008FED0E941D0280914901181684F4C0E09C
:1006800060EF8C2F0E945802CF5F2C2F30E08091BA
:100690004901082E000C990B281739078CF380911B
:1006A0004E01181684F4C0E06FE08C2F0E94950272
:1006B000CF5F2C2F30E080914E01082E000C990B5B
:1006C000281739078CF3DF91CF911F910F91FF907D
:1006D000EF90DF90CF90BF90AF907F906F905F9042
:1006E0004F90089580914E018430C4F5509163017C
:1006F00090E1599F90011124422F4260682F082EEB
:10070000000C770B16161706B4F490914A01941753
:1007100039F190E00AC0F901E65BFE4F20814213F7
:1007200004C09F3F41F080E008959F5F292F30E093
:100730002617370784F391E0980F90934E01E82F26
:10074000F0E0E65BFE4F90E1590290011124226037
:1007500020836FE00E94950281E0089580E0089573
:1007600080E008952F923F924F925F926F927F9216
:100770008F929F92AF92BF92CF92DF92EF92FF92B1
:100780000F931F93CF93DF9300D01F92CDB7DEB7A7
:1007900010924501109246011092470110924801B3
:1007A0008091490118160CF007C11B82812C912CF5
:1007B0005401689482F80F2EFEEACF2EF0E0DF2E6F
:1007C000F02D0F2EFAE92F2EF0E03F2EF02D2B8189
:1007D000E22E220FFF08F701E15BFE4F3081032F6D
:1007E00002950F703F703A83409130015091310172
:1007F00060913201709133018091450190914601E1
:10080000A0914701B0914801481759076A077B0733
:1008100009F44AC08091300190913101A0913201D8
:10082000B091330124013501481A590A6A0A7B0A3A
:100830008091300190913101A0913201B09133014A
:100840008093450190934601A0934701B0934801DE
:100850000E94560B162F79836CE070E08EE090E0DA
:100860000E94AC0D89818F931F93DF92CF920E94DB
:100870004A106DE070E08EE090E00E94AC0D7F9237
:100880006F925F924F923F922F920E944A100FB642
:10089000F894DEBF0FBECDBF45284628472821F477
:1008A00081E090E00E94150F3A813150398310E0C9
:1008B00080916301082E000C990B0817190711F499
:1008C000313091F09C012F5F3F4F0217130721F445
:1008D0008981882349F050C001970817190709F04A
:1008E0004BC09981911148C08B810E946F02809109
:1008F000300190913101A0913201B0913301019604
:10090000A11DB11D8093300190933101A09332015C
:10091000B09333018091300190913101A091320167
:10092000B09133010E94E70E809130019091310126
:10093000A0913201B09133010E94B50F69836FE03D
:1009400089810E94F5018F3FB9F7F701E15BFE4F06
:10095000398120E1329FC00111248F60808360EFD4
:100960008B810E94580208E510E08CE30E941D0272
:1009700001501109D1F718C060E08B810E94580224
:10098000F701E15BFE4F02951295107F1027007F63
:10099000102789818F70082B008360EF8B810E9464
:1009A00058028FED0E941D029B819F5F9B83809167
:1009B000490198170CF40BCF0F900F900F90DF9117
:1009C000CF911F910F91FF90EF90DF90CF90BF904C
:1009D000AF909F908F907F906F905F904F903F90DF
:1009E0002F9008958F929F92BF92CF92DF92EF92B5
:1009F000FF921F93CF93DF93C12C74C08C2C0C2CCF
:100A0000000C9908F401E65BFE4F8081E82EE69425
:100A1000E694E694E6948F70D82ECFE4D1E010E00F
:100A20008991982F92959F70E9123CC08F70D812CF
:100A300039C08C2D0E94AC02812F0E946F0281E090
:100A400090E00E94410B0E94B50FDC01CB01877042
:100A50009927AA27B078BB2354F40197A109B109BB
:100A6000886F9F6FAF6FBF6F0196A11DB11DB82E2C
:100A70006FE00E94F5018F3F31F78091490191E0CD
:100A8000980F90934901E82F082E000CFF0BE15BB3
:100A9000FE4F90E1B99E900111242F60208360EFFA
:100AA0000E9458021F5F143109F0BACF8FE0D812AC
:100AB00004C08C2D0E94AC0215C060E08C2D0E94F9
:100AC0009502F401E65BFE4F81E08D0D8F7090E1A1
:100AD000E99E70011124E82AE0826FE08C2D0E94CB
:100AE0009502C39480914E01C8160CF487CFDF9114
:100AF000CF911F91FF90EF90DF90CF90BF909F908C
:100B00008F9008950E94D60E0197F1F41092300153
:100B1000109231011092320110923301109245016E
:100B200010924601109247011092480185E390E02F
:100B3000A0E0B0E08093040190930501A09306012A
:100B4000B093070181E0089580E008958091040149
:100B500090910501A0910601B0910701CC97A105E4
:100B6000B10508F04BC08091040190910501A0915E
:100B70000601B09107010296A11DB11D80930401E9
:100B800090930501A0930601B093070163E170E023
:100B900088E290E00E94AC0D0E94C60D8091040195
:100BA00090910501A0910601B091070163E170E009
:100BB0000E94AC0D86E990E09F938F930E944A10AB
:100BC00063E170E08FE290E00E94AC0D84E990E078
:100BD0009F938F930E944A1063E170E08EE390E050
:100BE0000E94AC0D82E990E09F938F930E944A107F
:100BF0000F900F900F900F900F900F908091040125
:100C000090910501A0910601B0910701CC97A10533
:100C1000B10590F163E170E088E290E00E94AC0DD4
:100C20000E94C60D63E170E08FE290E00E94AC0D7F
:100C300080E990E09F938F930E944A1063E170E0F7
:100C40008EE390E00E94AC0D8EE890E09F938F932E
:100C50000E944A1063E170E08CE390E00E94AC0DCA
:100C60008BE890E09F938F930E944A100F900F9013
:100C70000F900F900F900F90089580910401909124
:100C80000501A0910601B09107018F97A105B1055B
:100C900008F44BC08091040190910501A0910601D8
:100CA000B09107010297A109B109809304019093C3
:100CB0000501A0930601B093070163E170E088E2AB
:100CC00090E00E94AC0D0E94C60D809104019091AD
:100CD0000501A0910601B091070163E170E00E9457
:100CE000AC0D87E890E09F938F930E944A1063E1D8
:100CF00070E08FE290E00E94AC0D85E890E09F9359
:100D00008F930E944A1063E170E08EE390E00E94AE
:100D1000AC0D83E890E09F938F930E944A100F9050
:100D20000F900F900F900F900F9080910401909171
:100D30000501A0910601B09107018F97A105B105AA
:100D400090F563E170E088E290E00E94AC0D0E94B3
:100D5000C60D63E170E08FE290E00E94AC0D81E887
:100D600090E09F938F930E944A1063E170E08EE3BE
:100D700090E00E94AC0D8FE790E09F938F930E94CC
:100D80004A1063E170E080E390E00E94AC0D8CE7D4
:100D900090E09F938F930E944A100F900F900F90B6
:100DA0000F900F900F900895811111C00E941D02A5
:100DB0008091630118163CF40E943D068091630106
:100DC0008150809363018FED0E941D020FC00E942D
:100DD000A60580E00E941D028091630187301CF40B
:100DE0008F5F809363018FED0E941D0281E0089563
:100DF000EF92FF920F931F93CF93DF93C8E9DAE34B
:100E00000E94B50FF62E0E94B50FE62E0E94B50F78
:100E1000162F0E94B50F062F4CE36E2D8F2D0E94CA
:100E20000B0843E1602F812F0E940B08219741F7A7
:100E30000E944E08CEE4D0E04CE366E08DE00E94D4
:100E40000B084CE365E08DE00E940B084CE364E086
:100E50008DE00E940B084CE363E08DE00E940B08DC
:100E60004CE362E08DE00E940B084CE361E08DE012
:100E70000E940B084CE361E08CE00E940B084CE3FD
:100E800061E08BE00E940B084CE361E08CE00E9483
:100E90000B084CE363E08CE00E940B084CE363E03A
:100EA0008BE00E940B084CE366E08CE00E940B088C
:100EB0004CE366E08BE00E940B084CE366E089E0BF
:100EC0000E940B084CE365E089E00E940B084CE3AC
:100ED00064E089E00E940B084CE363E089E00E9433
:100EE0000B084CE362E089E00E940B084CE361E0F0
:100EF00089E00E940B084CE361E088E00E940B0847
:100F00004CE361E087E00E940B084CE362E087E07D
:100F10000E940B084CE363E087E00E940B084CE35F
:100F200064E087E00E940B084CE365E087E00E94E4
:100F30000B084CE366E087E00E940B084CE366E098
:100F400086E00E940B084CE366E085E00E940B08F7
:100F50004CE364E085E00E940B084CE365E085E02B
:100F60000E940B084CE363E085E00E940B084CE311
:100F700062E085E00E940B084CE361E085E00E949E
:100F80000B084CE361E083E00E940B084CE366E051
:100F900082E00E940B084CE362E083E00E940B08B1
:100FA0004CE363E083E00E940B084CE364E083E0E1
:100FB0000E940B084CE365E083E00E940B084CE3C1
:100FC00066E083E00E940B084CE361E082E00E944F
:100FD0000B084CE362E081E00E940B084CE363E005
:100FE00081E00E940B084CE364E081E00E940B0862
:100FF0004CE365E081E00E940B08219709F01CCFCB
:10100000DF91CF911F910F91FF90EF90089580E8AD
:101010000E947E0D08951F93CF93DF938031B0F42B
:101020006830A0F4142FC62FD82F81E00E94A60D9F
:101030006C2F677080E1689F900111248D2F8F7055
:10104000822B0E94A60D812F0E94A60DDF91CF91C9
:101050001F9108950F931F93CF93DF93803190F4E6
:101060008B01C82F83E00E94A60D8C2F8F700E94E9
:10107000A60DE801085F1F4F89910E94A60DC017B9
:10108000D107D1F7DF91CF911F910F91089584E09F
:101090000E94A60D82E00E94A60D08958FE00E9496
:1010A000A60D08950E9407080E946C0140E060E0D0
:1010B0007BE480E090E00E94960C0E94D80D8FEFB8
:1010C00081B987B9789408950E94BD0D6AE070E0F7
:1010D0008AE090E00E94AC0D89E991E09F938F93A4
:1010E0000E944A106CE070E08AE090E00E94AC0D33
:1010F00084E791E09F938F930E944A106EE070E026
:101100008AE090E00E94AC0D8CE691E09F938F9373
:101110000E944A100E944E080F900F900F900F905F
:101120000F900F9060EF81E291E00E945F0B0DC085
:101130002FE789EA93E0215080409040E1F700C01A
:1011400000000E947A018F3F29F40E946E0B8111EA
:10115000EFCFE8CF08950E94D5020E94BD0D0E94F6
:10116000380B0E947A010E94E40C08952F923F925E
:101170004F925F926F927F928F929F92AF92BF92A7
:10118000CF92DF92EF92FF920F931F93CF93DF9353
:1011900000D000D01F92CDB7DEB76CE070E08EE0DB
:1011A00090E00E94AC0D0E94560B9F938F937F930B
:1011B0006F9382E691E09F938F930E944A106DE0B7
:1011C00070E08EE090E00E94AC0D1F9284E08F935F
:1011D0008EE491E09F938F930E944A100E94CF0D5E
:1011E00063E170E085E390E00E94AC0D8AE491E059
:1011F0009F938F930E944A1062E070E08FE290E02C
:101200000E94AC0D89E391E09F938F930E944A1056
:1012100064E170E08FE290E00E94AC0D88E291E022
:101220009F938F930E944A100FB6F894DEBF0FBEB3
:10123000CDBF43E050E006E211E05A834983698163
:101240007A818FE290E00E94AC0D1F930F930E9471
:101250004A1089819A8101969A8389830F900F9011
:10126000449769F7E3E0F0E004E211E0FA83E983F0
:1012700069817A818EE390E00E94AC0D1F930F93F9
:101280000E944A1029813A812F5F3F4F3A83298378
:101290000F900F902431310559F70E94F00D4B014A
:1012A0005C0110923501109234010E94820588235E
:1012B00061F010923501109234010E947A01882366
:1012C00021F080E090E00E94E70E89829A82AB8252
:1012D000BC82612C712C1D820F2EF5EF4F2EF0E099
:1012E0005F2EF02D0F2EF4EE2F2EF0E03F2EF02D7E
:1012F00002EE10E040C10E947A01E82E3FEF831316
:1013000026C00E94DD0C882329F1EEE7F2E08081FF
:1013100091810E940C10F82EFD81F11108C02BE183
:1013200082131CC031E03D83FF24FA9417C04D8125
:10133000413041F45BE5851310C082E08D83FF24CA
:10134000FA940CC09D81923009F41BC120C1FF2486
:10135000FA9404C0FF24FA9401C01D826114710440
:1013600009F01DC1E3E0EE1651F08F2D8F7D8C3416
:1013700051F405C01D82FF24FA9401C01D8280E053
:101380000E94D40608C1F2E0EF1631F09FEF9134CD
:1013900019F020E2F21203C00E947203FCC031E097
:1013A000E316B1F0923449F0EE2021F0933411F0BD
:1013B000823519F481E00E94D4068F2D8F7D80350F
:1013C00031F5672829F00E94BD0D612C712C1FC0DA
:1013D00062E070E08AE090E00E94AC0D4DE151E0E7
:1013E0005F934F930E944A1063E070E08AE090E0C0
:1013F0000E94AC0DE6E0F1E0FF93EF930E944A10EB
:101400000F900F900F900F9066246394712C0E94A0
:10141000CF0D62E070E08FE290E00E94AC0D5F9231
:101420004F920E944A1064E170E08FE290E00E94C7
:10143000AC0D3F922F920E944A100F900F900F9088
:101440000F900F2EF3E0EF2EF12CF02DB7018FE26D
:1014500090E00E94AC0D1F930F930E944A103FEF43
:10146000E31AF30A0F900F9044E1E416F10471F7C8
:101470000F2EF3E0EF2EF12CF02DB7018EE390E06C
:101480000E94AC0D80EE90E09F938F930E944A10D3
:10149000FFEFEF1AFF0A0F900F9024E1E216F1041C
:1014A00061F70E94F00D6B017C010E9482058111A1
:1014B00012C0D501C4018C509E4FAF4FBF4FC8160C
:1014C000D906EA06FB0638F06114710421F40E9483
:1014D000F204460157010E94820581114CC080919F
:1014E000340190913501092E000CAA0BBB0B24EF9F
:1014F00031E040E050E0281B390B4A0B5B0BDA016E
:10150000C90129813A814B815C81820F931FA41FFD
:10151000B51FC816D906EA06FB0668F16114710406
:1015200051F50E94560B6B3071058105910580F0D5
:101530008091340190913501803991404CF4809133
:101540003401909135010A969093350180933401CE
:1015500080913401909135018536910534F048EC45
:1015600050E050933501409334010E94B203C98288
:10157000DA82EB82FC820E948205882309F4BBCECA
:101580002DC06114710481F0FF24FA941FC061140E
:101590007104A1F01BC051E0E5120FCF19CF81E01B
:1015A000E81609F410CF14C094E4F91609F4E2CE59
:1015B0009F2D1D828FEDFF24FA94E9CE8F2D8F7D14
:1015C0008C3409F4DBCE1D829FEFE3CE1D82F5CE75
:1015D0008F2D8F7D803509F01ACFF5CE0F900F90AB
:1015E0000F900F900F90DF91CF911F910F91FF906F
:1015F000EF90DF90CF90BF90AF909F908F907F90B3
:101600006F905F904F903F902F9008956FE070E043
:101610008AE090E00E94AC0D86ED90E09F938F935E
:101620000E944A1060E170E08AE090E00E94AC0DF8
:1016300088EB90E09F938F930E944A100E944E087F
:101640000E94F8060E944E080F900F900F900F9086
:101650000E947A018F3FE1F308950E9452080E9490
:1016600064080E94AB080E94B6080E94060BF9CFDE
:101670001092640110926501109266011092670148
:1016800008954091640150916501609166017091E7
:101690006701480F591F611D711D409364015093EC
:1016A000650160936601709367010895609164011C
:1016B0007091650180916601909167010895609332
:1016C000080190933A018093390110923C011092E5
:1016D0003B01109238011092370108950F931F9328
:1016E000CF93DF93CDB7DEB728970FB6F894DEBF60
:1016F0000FBECDBFE0913B01F0913C01309781F0EE
:10170000149110FF06C010923C0110923B0100E0C2
:101710006BC03196F0933C01E0933B0100E064C064
:10172000E0913701F0913801309709F449C0CF01B9
:1017300001969093380180933701E081E1110AC04E
:10174000109238011092370180E18093360100E059
:1017500010E04AC08FE98E0F8A3170F4F0E0EE0F8E
:10176000FF1FEB50FF4F8591949190933C01809324
:101770003B0100E010E038C08FEB8E0F8A3170F42F
:10178000F0E0EE0FFF1FEB5CFE4F8591949190937C
:101790003C0180933B0100E010E026C080ED8E0FFD
:1017A0008A3000F5F0E0EE0FFF1FED5BFE4F8591F4
:1017B000949190933C0180933B0100E010E014C0B1
:1017C0008091390190913A0101E0009709F000E021
:1017D000909338018093370110923A0110923901A9
:1017E00010E002C000E010E00E94470820910801CC
:1017F000FE013896CE010196112314F4208301C016
:101800001082110F3197E817F907B1F71982BE015D
:101810006F5F7F4F8FE00E942A08809136018823F6
:1018200089F0815080933601002311F0882311F054
:1018300090E003C091E001C091E081E0992329F09C
:1018400080E003C00023A1F3F7CF28960FB6F894E9
:10185000DEBF0FBECDBFDF91CF911F910F910895D5
:10186000CF93C82F8A3019F48DE00E94300C9FB7B7
:10187000907802C0992329F1809169018F3FD1F3BB
:10188000F894E091680181E08E0F80936801F0E0A8
:10189000E659FE4FC083809169018F5F8093690193
:1018A000809168018F3F11F410926801E1ECF0E043
:1018B000808180628083992339F0789480E090E081
:1018C00005C081E090E002C080E090E0CF910895F3
:1018D00080917B028823E1F32FB72078F8948091E0
:1018E000690230917B0290E0831B91095AF4E091E8
:1018F000690280917B02F0E0E81BF109E658FD4F98
:1019000080810AC0E091690280917B02F0E0E81BCF
:10191000F109E659FD4F808190917B02915090939F
:101920007B02222309F0789490E0089510926801D8
:10193000109269011092690210927B0210927A0251
:1019400040933D01DC01CB01880F991FAA1FBB1FEB
:10195000880F991FAA1FBB1F9C01AD01220F331FC7
:10196000441F551F60E072E18AE790E00E941A0F61
:10197000BA01A9014F5F5F4F6F4F7F4FDB01CA0173
:101980001AF40196A11DB11DB595A7959795879558
:1019900001979093C5008093C400E1ECF0E088E1EA
:1019A0008083808180688083EEE7F2E089E091E0C7
:1019B0009383828391838083089590917B0281E059
:1019C000911101C080E008951092690210927B028B
:1019D00008951F920F920FB60F9211242F938F9399
:1019E0009F93EF93FF9380916901882329F1809160
:1019F00068012091690190E0821B91095AF4E091FD
:101A0000680180916901F0E0E81BF109E759FD4F99
:101A100090810AC0E091680180916901F0E0E81BC3
:101A2000F109E659FE4F90818091690181508093C0
:101A300069019093C60005C0E1ECF0E080818F7DE4
:101A40008083FF91EF919F918F912F910F900FBE07
:101A50000F901F9018951F920F920FB60F9211249E
:101A60002F933F934F935F936F937F938F939F93A6
:101A7000AF93BF93CF93EF93FF93C091C600809134
:101A80003D01882349F0809169018F3F29F060E092
:101A900070E08C2F0E94300C80917B02803120F00E
:101AA00081E080937A0218C0CD3009F4CAE0E09159
:101AB000690281E08E0F80936902F0E0E659FD4FE4
:101AC000C08380917B028F5F80937B02809169024B
:101AD000803111F410926902FF91EF91CF91BF9183
:101AE000AF919F918F917F916F915F914F913F91B6
:101AF0002F910F900FBE0F901F90189594B1906B7F
:101B000094B92C9A90E59CBD883021F0803211F078
:101B1000823019F491E09DBD01C01DBC803269F096
:101B200028F4883071F0803161F00EC0803429F0E3
:101B3000803851F48CB581608CBD8CB582608CBDD1
:101B400003C08CB581608CBD2C9808958EBD0DB4FA
:101B500007FEFDCF8EB508959F938F937F936F936C
:101B600081E992E09F938F930E944A100F900F900B
:101B70000F900F900F900F9008958CE892E09F9334
:101B80008F930E944A100F900F90089588E892E07A
:101B90009F938F930E944A100F900F90089581E8B1
:101BA00092E09F938F930E944A100F900F90089598
:101BB00010923E0110923F0110924001109241019B
:101BC00016BC8CE787BD82E084BD83E085BDEEE670
:101BD000F0E080818260808385B3827085BB089548
:101BE0002FB7F89460913E0170913F0180914001C0
:101BF0009091410122230CF4789408951F920F9242
:101C00000FB60F9211242F933F934F935F936F93CF
:101C10007F938F939F93AF93BF93EF93FF938091A5
:101C20003E0190913F01A0914001B0914101019688
:101C3000A11DB11D80933E0190933F01A0934001EF
:101C4000B09341010E94560B70934401609343018D
:101C500080914301909144018536910520F01092C6
:101C600044011092430112B880917C0290917D0250
:101C7000892B09F08AC080914301909144010A9711
:101C800010F540914301509144019A01ADECBCEC38
:101C90000E94390F96958795969587959695879585
:101CA0009C01220F331F880F991F880F991F880FDF
:101CB000991F820F931F481B590BFA01E95EFE4FD3
:101CC000808182B962C080914301909144010A975A
:101CD00008F45AC088B18095817080934201809148
:101CE0004201811122C040914301509144019A0167
:101CF000ADECBCEC0E94390F96958795969587952B
:101D0000969587959C01220F331F880F991F880F86
:101D1000991F880F991F820F931F481B590BFA01B7
:101D2000E95EFE4F808182B92AC020914301309143
:101D30004401ADECBCEC0E94390FAC0156954795BF
:101D400056954795569547959A010E94390F969555
:101D5000879596958795969587959C01220F331FB9
:101D6000880F991F880F991F880F991F820F931F43
:101D7000481B590BFA01E95EFE4F808182B998B188
:101D800081E0892788B901C012B8FF91EF91BF9116
:101D9000AF919F918F917F916F915F914F913F9103
:101DA0002F910F900FBE0F901F90189580917C027D
:101DB00090917D028130910529F410927D0210925C
:101DC0007C02089580917C0290917D02089582307A
:101DD000910581F01CF4019739F022C08330910500
:101DE00079F0049799F01CC0419810927D021092EE
:101DF0007C020895449810927D0210927C0208950E
:101E0000429810927D0210927C020895439881E0DE
:101E100090E090937D0280937C020E94D60E0895FC
:101E200010927D0210927C02089590937D0280931F
:101E30007C020895052E97FB1EF400940E94310F3A
:101E400057FD07D00E94480F07FC03D04EF40C94B6
:101E5000310F50954095309521953F4F4F4F5F4F33
:101E6000089590958095709561957F4F8F4F9F4F06
:101E70000895A29FB001B39FC001A39F700D811D63
:101E80001124911DB29F700D811D1124911D089583
:101E9000A1E21A2EAA1BBB1BFD010DC0AA1FBB1F6E
:101EA000EE1FFF1FA217B307E407F50720F0A21BE0
:101EB000B30BE40BF50B661F771F881F991F1A944D
:101EC00069F760957095809590959B01AC01BD0177
:101ED000CF0108958F929F92AF92BF92CF92DF92DF
:101EE000EF92FF92CF93DF93EC01688179818A8131
:101EF0009B81611571058105910521F464E279EDFD
:101F00008BE597E02DE133EF41E050E00E941A0F9E
:101F100049015A019B01AC01A7EAB1E40E940113F7
:101F20006B017C01ACEEB4EFA50194010E940F138C
:101F3000DC01CB018C0D9D1DAE1DBF1DB7FF03C085
:101F40000197A109B04888839983AA83BB83BC0108
:101F5000CD019F77DF91CF91FF90EF90DF90CF90F1
:101F6000BF90AF909F908F9008958F929F92AF9265
:101F7000BF92CF92DF92EF92FF9260910001709139
:101F800001018091020190910301611571058105A4
:101F9000910521F464E279ED8BE597E02DE133EFD3
:101FA00041E050E00E941A0F49015A019B01AC0127
:101FB000A7EAB1E40E9401136B017C01ACEEB4EF1F
:101FC000A50194010E940F13DC01CB018C0D9D1D16
:101FD000AE1DBF1DB7FF03C00197A109B048809394
:101FE000000190930101A0930201B0930301BC0191
:101FF000CD019F77FF90EF90DF90CF90BF90AF9093
:102000009F908F90089560930001709301018093D9
:102010000201909303010895CF93DF93EC012B818C
:1020200020FF33C026FF0AC02F7B2B838E819F8128
:1020300001969F838E838A8190E029C022FF0FC082
:10204000E881F9818081082E000C990B009719F422
:1020500020622B831AC03196F983E8830EC0EA858B
:10206000FB85099597FF09C02B81019611F080E24D
:1020700001C080E1822B8B8308C02E813F812F5FBE
:102080003F4F3F832E83992702C08FEF9FEFDF9151
:10209000CF910895A0E0B0E0E0E5F0E10C942213C8
:1020A000AE01495F5F4FDA016D917D91AD010EE7A1
:1020B00012E0F80182819381DC0113962C91139731
:1020C000286013962C930E947010D8011296ED91FF
:1020D000FC9113972381277F2383E4E00C943E1324
:1020E000ABE0B0E0E6E7F0E10C9414136C017B0187
:1020F0008A01FC0117821682838181FFCCC1CE0147
:1021000001963C01F6019381F70193FD859193FFC0
:1021100081917F01882309F4BAC1853239F493FD96
:10212000859193FF81917F01853229F4B60190E07A
:102130000E946712E7CF912C212C312CFFE1F3157F
:10214000D8F08B3279F038F4803279F08332A1F410
:10215000232D20611DC08D3261F0803369F4232D61
:10216000216016C0832D8260382EE32DE4603E2E60
:102170002AC0F32DF8601DC037FC2DC020ED280FBC
:102180002A3040F08E32B9F436FC81C1232D206410
:10219000322E19C036FE06C08AE0989E200D11240A
:1021A000922E11C0EAE02E9E200D1124222EF32D36
:1021B000F0623F2E08C08C3621F4832D8068382EC3
:1021C00002C0883641F4F70193FD859193FF819118
:1021D0007F018111B3CF982F9F7D9554933028F4C0
:1021E0000C5F1F4F9FE399830DC0833631F0833717
:1021F00071F0833509F059C021C0F80180818983CD
:102200000E5F1F4F88248394912C530113C0280123
:10221000F2E04F0E511CF801A080B18036FE03C0E1
:10222000692D70E002C06FEF7FEFC5010E945C1264
:102230004C018201F32DFF773F2E16C0280122E0CA
:10224000420E511CF801A080B18036FE03C0692DFA
:1022500070E002C06FEF7FEFC5010E9451124C0188
:10226000F32DF0683F2E820133FC1BC0822D90E0DD
:1022700088169906B0F4B60180E290E00E946712D9
:102280002A94F4CFF50137FC859137FE81915F01E7
:10229000B60190E00E94671221102A9421E0821A70
:1022A00091088114910471F7E8C0843611F08936E1
:1022B00041F5F80137FE07C0608171818281938109
:1022C0000C5F1F4F08C060817181072E000C880BC6
:1022D000990B0E5F1F4FF32DFF763F2E97FF09C01E
:1022E00090958095709561957F4F8F4F9F4FF068C7
:1022F0003F2E2AE030E0A3010E94A312882E861808
:1023000045C0853731F4232D2F7EB22E2AE030E0F0
:1023100025C0932D997FB92E8F36C1F018F48835DA
:1023200079F0B5C0803719F0883721F0B0C0E92FB7
:10233000E061BE2EB4FE0DC0FB2DF460BF2E09C0BF
:1023400034FE0AC0292F2660B22E06C028E030E0F5
:1023500005C020E130E002C020E132E0F801B7FE24
:1023600007C060817181828193810C5F1F4F06C01D
:102370006081718180E090E00E5F1F4FA3010E9499
:10238000A312882E8618FB2DFF773F2E36FE0DC038
:10239000232D2E7FA22E891458F434FE0BC032FC5C
:1023A00009C0832D8E7EA82E05C0B82CA32C03C097
:1023B000B82C01C0B92CA4FE0FC0FE01E80DF11D20
:1023C0008081803321F49A2D997EA92E09C0A2FE26
:1023D00006C0B394B39404C08A2D867809F0B394F0
:1023E000A3FC11C0A0FE06C0B21488F4280C922CE5
:1023F0009B180EC0B21460F4B60180E290E00E9417
:102400006712B394F7CFB21418F42B1802C0982CAB
:10241000212CA4FE10C0B60180E390E00E94671258
:10242000A2FE17C0A1FC03C088E790E002C088E5C7
:1024300090E0B6010CC08A2D867859F0A1FE02C04A
:102440008BE201C080E2A7FC8DE2B60190E00E9421
:102450006712891438F4B60180E390E00E94671295
:102460009A94F7CF8A94F301E80DF11D8081B601AB
:1024700090E00E9467128110F5CF222009F442CE2D
:10248000B60180E290E00E9467122A94F6CFF6012E
:102490008681978102C08FEF9FEF2B96E2E10C942B
:1024A0003013FC010590615070400110D8F7809501
:1024B00090958E0F9F1F0895FC0161507040019010
:1024C0000110D8F7809590958E0F9F1F08950F9358
:1024D0001F93CF93DF93FB01238121FD03C08FEF77
:1024E0009FEF2CC022FF16C0468157812481358181
:1024F0004217530744F4A081B1819D012F5F3F4FE4
:10250000318320838C93268137812F5F3F4F378320
:10251000268314C08B01EC01FB010084F185E02DC2
:102520000995892BE1F6D80116968D919C91179704
:10253000019617969C938E931697CE01DF91CF91BB
:102540001F910F910895FA01AA27283051F12031E7
:1025500081F1E8946F936E7F6E5F7F4F8F4F9F4F37
:10256000AF4FB1E03ED0B4E03CD0670F781F891F79
:102570009A1FA11D680F791F8A1F911DA11D6A0F47
:10258000711D811D911DA11D20D009F468943F91FA
:102590002AE0269F11243019305D3193DEF6CF01F9
:1025A0000895462F4770405D4193B3E00FD0C9F7BF
:1025B000F6CF462F4F70405D4A3318F0495D31FD2C
:1025C0004052419302D0A9F7EACFB4E0A69597957F
:1025D000879577956795BA95C9F700976105710555
:1025E00008959B01AC010A2E06945795479537959F
:1025F0002795BA95C9F7620F731F841F951FA01DF9
:1026000008950E94390FA59F900DB49F900DA49F2F
:10261000800D911D11240895B7FF0C9401130E94A1
:102620000113821B930B08952F923F924F925F925A
:102630006F927F928F929F92AF92BF92CF92DF92D2
:10264000EF92FF920F931F93CF93DF93CDB7DEB737
:10265000CA1BDB0B0FB6F894DEBF0FBECDBF0994CB
:102660002A88398848885F846E847D848C849B8422
:10267000AA84B984C884DF80EE80FD800C811B8130
:10268000AA81B981CE0FD11D0FB6F894DEBF0FBE5F
:0A269000CDBFED010895F894FFCFCF
:10269A0001000000350000000F00000003000000E8
:1026AA0000300C680C00003F065B4F666D7D077FAB
:0A26BA006F343532393338353800FB
:00000001FF
